:100000000C94E00B0C940B0C0C940B0C0C940B0C40
:100010000C940B0C0C940B0C0C940B0C0C940B0C04
:100020000C940B0C0C940B0C0C9482B60C94FCB43A
:100030000C940B0C0C940B0C0C940B0C0C940B0CE4
:100040000C940B0C0C94E9950C940B0C0C940B0C6D
:100050000C940B0C0C940B0C0C94859E0C94C5B357
:100060000C940B0C0C940B0C0C940B0C0C940B0CB4
:100070000C940B0C0C940B0C0C940B0C0C940B0CA4
:100080000C940B0C0C940B0C0C940B0C0C940B0C94
:100090000C94EAAE0C940B0C084AD73B3BCE016E95
:1000A00084BCBFFDC12F3D6C74319ABD56833DDACF
:1000B0003D00C77F11BED9E4BB4C3E916BAAAABEDE
:1000C000000000803F05A84CCDB2D44EB93836A907
:1000D000020C50B9918688083CA6AAAA2ABE000044
:1000E00000803F4D383420582059205A2045006563
:1000F00063686F3A0043616E6E6F7420656E74655D
:1001000072207375626469723A20004D3234004D7A
:100110003233202573006175746F25692E670045A1
:1001200072726F723A006572726F722077726974C0
:10013000696E6720746F2066696C65004E6F74206D
:100140005344207072696E74696E67002F005344C7
:10015000207072696E74696E672062797465200020
:100160002E0044656C6574696F6E206661696C650C
:10017000642C2046696C653A200046696C652064F1
:10018000656C657465643A002E006F70656E20665C
:1001900061696C65642C2046696C653A2000577271
:1001A0006974696E6720746F2066696C653A200017
:1001B0002E006F70656E206661696C65642C204648
:1001C000696C653A20002E006F70656E206661696B
:1001D0006C65642C2046696C653A200046696C6544
:1001E0002073656C6563746564002053697A653AB1
:1001F000200046696C65206F70656E65643A20006A
:100200002E006F70656E206661696C65642C2046F7
:10021000696C653A20004E6F7720667265736820BE
:1002200066696C653A20004E6F7720646F696E676F
:100230002066696C653A20002220706F73002220CE
:10024000706172656E743A2200535542524F555494
:10025000494E452043414C4C207461726765743AA5
:100260002200747279696E6720746F2063616C6C10
:10027000207375622D67636F64652066696C6573B2
:10028000207769746820746F6F206D616E79206CBF
:100290006576656C732E204D4158206C6576656CD3
:1002A0002069733A0053442063617264206F6B00CD
:1002B0006F70656E526F6F74206661696C65640063
:1002C000766F6C756D652E696E6974206661696CF8
:1002D000656400534420696E6974206661696C002E
:1002E0006563686F3A0048617264636F6465642097
:1002F00044656661756C742053657474696E6773C8
:10030000204C6F616465640053746F726564207380
:10031000657474696E677320726574726965766559
:100320006400205A0020590020204D3231322058DC
:10033000004265642070726F6265206F6666736547
:100340007420286D6D293A00205A00205900202081
:100350004D3231312058004D617820706F736974CF
:10036000696F6E20286D6D293A00205A00205900CF
:1003700020204D3231302058004D696E20706F734F
:100380006974696F6E20286D6D293A002044002041
:1003900049002020204D3330312050005049442066
:1003A00073657474696E67733A00205A00205900AF
:1003B00020204D323036205800486F6D65206F6622
:1003C0006673657420286D6D293A00204500205A17
:1003D0000020580020420020540020204D323035AB
:1003E000205300416476616E6365642076617269B2
:1003F00061626C65733A20533D4D696E2066656598
:10040000647261746520286D6D2F73292C20543D12
:100410004D696E2074726176656C206665656472E4
:1004200061746520286D6D2F73292C20423D6D6904
:100430006E696D756D207365676D656E7420746986
:100440006D6520286D73292C20583D6D6178696D8C
:10045000756D205859206A65726B20286D6D2F7359
:10046000292C20205A3D6D6178696D756D205A20C8
:100470006A65726B20286D6D2F73292C2020453DF5
:100480006D6178696D756D2045206A65726B2028F5
:100490006D6D2F73290020540020204D3230342000
:1004A0005300416363656C65726174696F6E3A20D5
:1004B000533D616363656C65726174696F6E2C2076
:1004C000543D7265747261637420616363656C6529
:1004D000726174696F6E00204500205A0020590037
:1004E00020204D3230312058004D6178696D756D96
:1004F00020416363656C65726174696F6E20286D5D
:100500006D2F7332293A00204500205A00205900EF
:1005100020204D3230332058004D6178696D756D63
:100520002066656564726174657320286D6D2F7334
:10053000293A00204500205A0020590020204D393A
:100540003220580053746570732070657220756E88
:1005500069743A0053657474696E67732053746FDD
:10056000726564006563686F3A004572726F723A33
:10057000005072696E7465722073746F7070656478
:100580002064756520746F206572726F72732E20FF
:1005900046697820746865206572726F7220616E9A
:1005A0006420757365204D39393920746F20726568
:1005B00073746172742E202854656D706572617455
:1005C0007572652069732072657365742E2053659A
:1005D0007420697420616674657220726573746139
:1005E0007274696E6729005072696E746572206852
:1005F000616C7465642E206B696C6C2829206361C2
:100600006C6C656421006F6B00526573656E643AB3
:1006100020002200556E6B6E6F776E20636F6D6DDC
:10062000616E643A2022007A5F6D696E3A2000792B
:100630005F6D61783A2000785F6D696E3A20005AEC
:100640003A00593A0020436F756E7420583A2000E2
:10065000453A005A3A00593A00583A004649524D34
:10066000574152455F4E414D453A5042204D6172CF
:100670006C696E20526576204620763520464952B8
:100680004D574152455F55524C3A68747470733AF5
:100690002F2F6769746875622E636F6D2F507269B2
:1006A0006E7472626F742F4D61726C696E2050525D
:1006B0004F544F434F4C5F56455253494F4E3A317A
:1006C0002E30204D414348494E455F545950453ADC
:1006D0005072696E7472626F74204558545255445A
:1006E00045525F434F554E543A3120555549443A8F
:1006F00065643239653763642D373931382D3433C9
:1007000036662D383164372D3734376264663531BB
:10071000353362340A0020423A0020453A00543A08
:100720000020573A0020453A00543A002042403A0F
:100730000020403A00202F003A00205400202F00D3
:1007400020423A00202F006F6B20543A0025692088
:100750006D696E2C2025692073656300456E6420E9
:1007600066696C65206C69737400426567696E2008
:1007700066696C65206C697374000A00205A3A201F
:100780000020593A200042656420506F73697469F3
:100790006F6E20583A200020643A200020623A20F0
:1007A0000045716E20636F656666696369656E7486
:1007B000733A20613A20000A00207A3A200020791A
:1007C0003A200042656420783A20005A50726F62E5
:1007D00065204F7574736964652042656400486FD5
:1007E0006D6520582F59206265666F7265205A002A
:1007F000FF01FF0000A0400000A0400000803F2556
:100800006920686F757273202569206D696E757433
:10081000657300446F6E65207072696E74696E67EF
:100820002066696C65005072696E7465722073741D
:100830006F707065642064756520746F20657272D6
:100840006F72732E20466978207468652065727215
:100850006F7220616E6420757365204D39393920BF
:10086000746F20726573746172742E202854656DE4
:100870007065726174757265206973207265736545
:10088000742E20536574206974206166746572202B
:1008900072657374617274696E6729006F6B004EC4
:1008A0006F204C696E65204E756D626572207769A8
:1008B000746820636865636B73756D2C204C61737D
:1008C00074204C696E653A20004E6F204368656362
:1008D0006B73756D2077697468206C696E65206E26
:1008E000756D6265722C204C617374204C696E6565
:1008F0003A2000636865636B73756D206D69736D75
:10090000617463682C204C617374204C696E653A85
:1009100020004C696E65204E756D626572206973AA
:10092000206E6F74204C617374204C696E65204E8C
:10093000756D6265722B312C204C617374204C698B
:100940006E653A20004D31313000446F6E65207382
:100950006176696E672066696C652E006F6B004D6D
:100960003239002020506C616E6E65724275666689
:10097000657242797465733A20002046726565207D
:100980004D656D6F72793A20004D617220323320CF
:100990003230313800436F6D70696C65643A200005
:1009A00028546F726D656E746973742900207C2001
:1009B000417574686F723A20004D617220323320A5
:1009C000323031382032313A30333A343400204C2E
:1009D00061737420557064617465643A2000312E2F
:1009E000302E30004D61726C696E200020536F66AE
:1009F0007477617265205265736574002057617465
:100A00006368646F67205265736574002042726F7B
:100A1000776E206F75742052657365740020457879
:100A20007465726E616C20526573657400506F77E7
:100A300065725570007374617274002200656E7186
:100A40007565696E672022002200656E71756569A3
:100A50006E672022006563686F3A0020746F6F2014
:100A60006C6F6E6720657874727573696F6E207035
:100A7000726576656E7465640020636F6C642065D2
:100A80007874727573696F6E2070726576656E74B6
:100A90006564007C3C3E5E2B3D3F2F5B5D3B2C2A1A
:100AA000225C0045313A200045303A20005A3A2075
:100AB00000593A2000583A20004D53312C4D533202
:100AC0002050696E730A006563686F3A0028002938
:100AD00020453A00280029205A3A002800292059A8
:100AE0003A00280020583A005374657070657220EF
:100AF00063757272656E742076616C756573205BC8
:100B00002528726177295D3A0024F404D9201BC49A
:100B10000C5C0E9804C4095F0265077101F405F9C5
:100B200000FB04B30048048700C103690058035563
:100B30000003034500BE023A008402310053022A3A
:100B4000002902250004022000E4011C00C801194C
:100B500000AF011700980114008401130071011007
:100B6000006101100051010E0043010D0036010B20
:100B7000002B010B0020010B00150109000C0109DD
:100B80000003010800FB000800F3000800EB000769
:100B900000E4000600DE000600D8000600D20006D1
:100BA00000CC000500C7000500C2000500BD000420
:100BB00000B9000400B5000400B1000400AD000459
:100BC00000A9000400A5000300A20003009F000488
:100BD000009B0003009800030095000200930003AF
:100BE00000900003008D0002008B000300880002CB
:100BF000008600020084000300810002007F0002E2
:100C0000007D0002007B00020079000200770001F5
:100C10000076000200740002007200010071000200
:100C2000006F0002006D0001006C0002006A00010C
:100C30000069000200670001006600010065000114
:100C40000064000200620001006100010060000118
:100C5000005F0002005D0001005C0001005B00011C
:100C6000005A00010059000100580001005700011E
:100C7000005600010055000100540001005300001F
:100C8000005300010052000100510001005000011A
:100C9000004F0001004E0000004E0001004D000119
:100CA000004C0001004B0000004B0001004A000115
:100CB0000049000100480000004800010047000111
:100CC000004600000046000100450000004500010C
:100CD0000044000100430000004300010042000006
:100CE00000420001004100000041000100400001FD
:100CF000003F0000003F0001003E0000003E0001F8
:100D0000003D0000003D0001003C0000003C0000F0
:100D1000003C0001003B0000003B0001003A0000E5
:100D2000003A0001003900000039000100380000DD
:100D300000380000003800010037000000370001D3
:100D400000360000003600000036000100350000CB
:100D500000350000003500010034000000340000C0
:100D600000340001003300000033000000330001B4
:100D700000320000003200000032000100310000AB
:100D800000310000003100010030000000300000A0
:100D900000300001002F0000002F0000002F000095
:100DA000002F0001002E0000002E0000002E000188
:100DB000002D0000002D0000002D0000002D00017E
:100DC000002C0000002C0000002C0000002C000172
:100DD000002B0000002B0000002B0000002B000166
:100DE000002A0000002A0000002A0000002A00015A
:100DF000002900000029000000290000002900004F
:100E00000029000100280000002800000028000040
:100E10000028000000280001002700000027000033
:100E20000027000000270000002700010026000026
:100E30000026000000260000002600000026000119
:100E4000002500000025000000250000002500000E
:100E500000250000002500010024000000240000FF
:100E600000240000002400000024000100230000F2
:100E700000230000002300000023000000230000E6
:100E800000230000002300010022000000220000D7
:100E900000220000002200000022000000220001C9
:100EA00000210000002100000021000000210000BE
:100EB00000210000002100000021000100200000AE
:100EC00000200000002000000020000000200000A2
:100ED000002000000020000000200001001F000092
:100EE000001F0000001F0000001F0000001F000086
:100EF000001F0000001F0001001E0000001E000077
:100F0000001E0000001E00000024F4D43050C38EE8
:100F100020C2A24017828B7011127A910D816CD978
:100F20000AA861E108C7586607615143061E4B5D78
:100F300005C145A7041A411104093D9803713931CF
:100F4000034036DB0265339102D4305402802E1DFB
:100F500002632CEE01752AC501B028A0011027817B
:100F6000018F2564012B244B01E0223401AC211FA9
:100F7000018D200D01801FFC00841EED00971DDFF8
:100F800000B81CD200E61BC600201BBC00641AB2CD
:100F900000B219A8000A19A0006A189900D1179187
:100FA0000040178B00B516840031167E00B315790A
:100FB000003A157300C7146F0058146A00EE1366E8
:100FC000008813630025135E00C7125B006C125784
:100FD0000015125400C111510070114F0021114B26
:100FE00000D61049008D1047004610440002104200
:100FF00000C00F4000800F3E00420F3C00060F3B38
:1010000000CB0E3800930E37005C0E3500270E34EF
:1010100000F30D3200C10D3100900D3000600D2E37
:1010200000320D2D00050D2C00D90C2B00AE0C2923
:1010300000850C29005C0C2700350C27000E0C26BF
:1010400000E80B2400C40B2400A00B23007D0B231D
:10105000005A0B2100390B2100180B2000F80A1F41
:1010600000D90A1E00BB0A1E009D0A1D00800A1D31
:1010700000630A1C00470A1B002C0A1B00110A1AF5
:1010800000F7091A00DD091900C4091900AB091994
:1010900000920917007B091800630917004C091614
:1010A0000036091600200916000A091500F5081572
:1010B00000E0081400CC081400B8081400A40814B8
:1010C00000900813007D0812006B081300580812E6
:1010D00000460812003408110023081100120811FC
:1010E0000001081100F0071000E0071000D0071001
:1010F00000C0071000B0070F00A107100091070EF5
:101100000083070F0074070F0065070E0057070ED6
:101110000049070E003B070D002E070E0020070DAB
:101120000013070D0006070D00F9060C00ED060D73
:1011300000E0060C00D4060C00C8060C00BC060C2F
:1011400000B0060C00A4060B0099060C008D060BDF
:101150000082060B0077060B006C060B0061060A86
:101160000057060B004C060A0042060A0038060A21
:10117000002E060A0024060A001A060A00100609B4
:101180000007060A00FD050900F4050900EB050942
:1011900000E2050900D9050900D0050900C70509C5
:1011A00000BE050900B5050800AD050800A5050944
:1011B000009C050800940508008C050800840508BB
:1011C000007C050800740508006C0507006505082B
:1011D000005D050700560508004E05070047050796
:1011E000004005080038050700310507002A0507FB
:1011F00000230507001C050600160507000F05075C
:10120000000805060002050700FB040600F50407B8
:1012100000EE040600E8040600E2040700DB040612
:1012200000D5040600CF040600C9040600C3040666
:1012300000BD040600B7040600B1040500AC0406B6
:1012400000A6040600A00405009B04060095040502
:1012500000900406008A0405008504050080040649
:10126000007A04050075040500700405006B040590
:101270000066040500610405005C040500570405D0
:1012800000520405004D0405004804050043040510
:10129000003E0404003A040500350405003004044F
:1012A000002C04050027040400230405001E040488
:1012B000001A04040016040500110404000D0404BF
:1012C00000090405000404040000040400FC0304F5
:1012D00000F8030400F4030400F0030400EC03042A
:1012E00000E8030400E4030400E0030400DC03045A
:1012F00000D8030400D4030400D0030400CC03048A
:1013000000C8030300C5030300205A3A0020593ADD
:101310000020583A00656E6473746F7073206869BA
:10132000743A20004572726F723A0054656D7065B0
:1013300072617475726520686561746564206265A8
:1013400064207377697463686564206F66662E2015
:101350004D415854454D50207472696767657265F8
:1013600064202121003A20457874727564657220EA
:101370007377697463686564206F66662E204D49D3
:101380004E54454D502074726967676572656420DC
:1013900021003A204578747275646572207377690C
:1013A0007463686564206F66662E204D415854450D
:1013B0004D50207472696767657265642021002052
:1013C0002D20496E76616C6964206578747275644D
:1013D0006572206E756D6265722021001000AD038C
:1013E00030016A0150022B0170030A019004F500DC
:1013F000B005E500D006D800F007CE001009C50002
:10140000300ABE00500BB700700CB100900DAB005D
:10141000B00EA600D00FA200F0109D00101299008F
:10142000301395005014920070158E0090168B00AA
:10143000B0178700D0188400F0198100101B7E00BF
:10144000301C7B00501D7900701E7600901F7300C9
:10145000B0207000D0216E00F0226B0010246900D3
:1014600030256600502663007027610090285E00DA
:10147000B0295C00D02A5900F02B5600102D5400E2
:10148000302E5100502F4E0070304B0090314800EC
:10149000B0324500D0334200F0343E0010363B00FD
:1014A000303737005038330070392E00903A290019
:1014B000B03B2300D03C1B00F03D1100103F010069
:1014C000F03F0000504944204175746F74756E659B
:1014D0002066696E69736865642120507574207494
:1014E0006865204B702C204B6920616E64204B6432
:1014F00020636F6E7374616E747320696E746F20F5
:10150000436F6E66696775726174696F6E2E6800ED
:10151000504944204175746F74756E652066616929
:101520006C6564212074696D656F75740020403AA4
:10153000006F6B20543A006F6B20423A00504944D0
:10154000204175746F74756E65206661696C6564A1
:10155000212054656D706572617475726520746FB9
:101560006F206869676800204B643A2000204B694F
:101570003A2000204B703A200020436C617369636D
:101580002050494420002054753A2000204B753AE1
:101590002000206D61783A2000206D696E3A2000AD
:1015A00020643A200020626961733A20001000C96B
:1015B0000210012C014001220170011801B0010E3E
:1015C00001F00104015002FA00B002F0003003E61D
:1015D00000D003DC009004D2007005C800A006BE55
:1015E000000008B400B009AA00D00BA000600E965D
:1015F0000060118C000015820020197800C01D6E5B
:1016000000A0226400B0275A00902C500000314600
:1016100000E0343C0010383200903A2800603C1E54
:1016200000A03D1400803E0A00203F00000A002078
:10163000000A00207A3A200020793A200020783AE7
:1016400020000129022904290829102920294029DC
:101650008029012C022C01260226042608261026A9
:10166000202640268026402C802C012302230423A0
:10167000082310232023402380230120022004205C
:1016800008201020202040208020102C202C012F0A
:10169000022F042F082F102F202F402F802F7EFE87
:1016A0007EFD7EFB7EF77EEF7EDF7EBF7E7F0001CC
:1016B0000000E2161200020000F4164300030000CE
:1016C000371704010309043B1718020309045517CF
:1016D00016030309046D170C0001C10201803601D5
:1016E00081361201000202000020C01683040001AE
:1016F0000102030109024300020100C03209040093
:10170000000102020100052400100105240100016E
:101710000424020605240600010705820308004090
:1017200009040100020A000000070503024000004E
:1017300007058402400000040309041803540065EF
:101740000065006E00730079006400750069006E2A
:10175000006F0000001603550053004200200053A4
:101760000065007200690061006C0000000C03312C
:101770000032003300340035000000494E46494E27
:101780004954594E414ECDCCCC3D0AD7233C17B7D6
:10179000D13877CC2B329595E6241FB14F0A000043
:1017A00020410000C84200401C4620BCBE4CCA1B61
:1017B0000E5AAEC59D741D294794F6ADEFB9182990
:1017C00011241FBECFEFD0E2DEBFCDBF13E0A0E0FB
:1017D000B1E0E6ECFFE701E00BBF02C007900D921D
:1017E000A836B107D9F71BBE10E1A8E6B3E001C0E7
:1017F0001D92AA3FB107E1F717E1CEEBD7E104C094
:101800002297FE010E9489BFC63BD107C9F70E94FB
:1018100000B70C94D7BF0C940000A0E0B0E0E3E167
:10182000FCE00C94A6BFEC015B016115710519F099
:10183000FB0191838083F9908F2D90E00E948DBFF2
:10184000892BC9F7FDE2FF1621F4F990EE24E39409
:1018500005C02BE2F21609F4F990EE248E01015036
:101860001040C8016BE777E143E050E069D2892B73
:10187000F9F48E010E5F1F4FC8016EE777E145E076
:1018800050E05ED2892B19F48E01095F1F4FA1141D
:10189000B10419F0F50111830083E0FC04C070E08D
:1018A00090E080E813C070E090E080E86FEF07C13F
:1018B000C80163E877E143E050E042D2892B69F444
:1018C000A114B10429F470E090E080EC6FE7F7C058
:1018D0002296F501D183C083F6CF8824992440E075
:1018E00050E060E070E0EF2DE053EA30A0F5F2E068
:1018F000EF2A8E2D90E09C0128703070E2FE06C029
:10190000232B79F50894811C911C2BC0232B19F0F3
:10191000089481089108DB01CA0112E0880F991F21
:10192000AA1FBB1F1A95D1F7480F591F6A1F7B1FAB
:10193000440F551F661F771F4E0F511D611D711DEE
:10194000483929E9520729E9620729E1720748F075
:1019500084E0E82A06C0EE3F31F4E3FC39C098E0A9
:10196000E92AF990C0CFE53311F0E53189F52991E5
:101970002D3219F4E0E1EE2A05C02B3219F081E096
:1019800090E003C0299182E090E0E22FE053EA303A
:1019900018F0C81BD90B1CC020E030E0FCE0203858
:1019A0003F075CF4C901880F991F880F991F280F02
:1019B000391F220F331F2E0F311DE991E053EA30FA
:1019C00068F3E4FE03C0309521953F4F820E931ECD
:1019D000CE2CDD24E1FE07C0A114B10421F0219733
:1019E000F501D183C083CB01BA010E94F2BB7B0118
:1019F0008C01F3E0CF22DD2423E0C216D10421F4D0
:101A000017FB109517F9109557016801C801B70128
:101A100020E030E040E050E00E9452BB882309F40F
:101A20004AC097FE0DC02AE9E22E27E1F22E9094DB
:101A3000819491089394C0E2D0E000E010E012C0DD
:101A400092EBE92E97E1F92EF6CFF701259135912A
:101A500045915491C601B5010E9432BE5B016C01F3
:101A60008C1A9D0A8C169D0684F7D595C7950F5F35
:101A70001F4F0630110529F08CEF9FEFE80EF91E7D
:101A8000F1CFC501D6017C018D018C2D880F8D2DE4
:101A9000881F8F3F51F0C601B50120E030E040E0E3
:101AA00050E00E9452BB882331F482E290E0909390
:101AB000F9108093F8107E2D9F2D802F612F272FF6
:101AC000392F482F562FB901CA01CDB7DEB7ECE048
:101AD0000C94C2BF2F923F925F926F927F928F922F
:101AE0009F92AF92BF92CF92DF92EF92FF920F93AD
:101AF0001F93CF93DF938C011B01EA0161157105E0
:101B000019F0FB0191838083209749F0CE01029761
:101B1000839728F020E030E040E050E0F6C0F80184
:101B2000A1908F018A2D90E00E948DBF892BB9F77B
:101B3000FDE2AF1631F4F801A1908F0155245394C2
:101B400007C0FBE2AF1619F4F801A1908F015524EC
:101B5000209719F0C031D105C1F4F0E3AF1679F444
:101B6000F8018081883711F0883549F4F801A180A7
:101B70000E5F1F4FF2E05F2AC0E1D0E006C0209761
:101B800021F480E3A816E9F427C0C830D10531F16B
:101B9000C930D10524F4C230D10531F50CC0CA30AA
:101BA000D10589F0C031D105F9F4C12CD12CE12C3B
:101BB000B8E0FB2E28C0C12CD12CE12CA0E4FA2ED9
:101BC00022C0CAE0D0E0FCECCF2EFCECDF2EFCEC17
:101BD000EF2EFCE0FF2E17C0C8E0D0E0C12CD12CC6
:101BE000E12CE0E1FE2E0FC09E01442737FD409519
:101BF000542F60E070E080E090E80E944ABFC90185
:101C0000DA016C017D0120E030E040E050E060E06E
:101C10003E01882477FC8094982C70EDB72EBA0C86
:101C2000E9E0EB1570F48A2D81548A3118F499ECAF
:101C3000B92E06C08A2D81568A3150F589EAB82E10
:101C4000BA0C8B2D90E08C179D0714F56F3FE1F0D7
:101C5000C216D306E406F506B0F0CA01B901A40124
:101C600093010E9404BF9B01AC012B0D311D411D4E
:101C7000511D2130F0E03F07F0E04F07F0E85F072B
:101C800010F461E001C06FEFF801A1908F01C5CFA2
:101C90002114310481F0662331F001501040F1012C
:101CA0001183008308C051FE1AC002501040F10198
:101CB0001183008314C067FF12C050FC05C02FEFD2
:101CC0003FEF4FEF5FE704C020E030E040E050E836
:101CD00082E290E09093F9108093F81016C050FEC5
:101CE00008C050954095309521953F4F4F4F5F4F1D
:101CF0000CC057FF0AC082E290E09093F9108093E5
:101D0000F8102FEF3FEF4FEF5FE7B901CA01DF9106
:101D1000CF911F910F91FF90EF90DF90CF90BF90E8
:101D2000AF909F908F907F906F905F903F902F909B
:101D30000895FB01DC0105900D920020E1F7089564
:101D4000FB01DC014150504088F08D9181341CF042
:101D50008B350CF4805E659161341CF06B350CF4AE
:101D6000605E861B611171F3990B0895881BFCCF8F
:101D7000FB0155915523A9F0BF01DC014D91451799
:101D80004111E1F759F4CD010590002049F04D9142
:101D900040154111C9F3FB014111EFCF81E090E003
:101DA00001970895FB01DC0104C08D910190801919
:101DB00021F441505040C8F7881B990B0895FB014E
:101DC000DC0102C001900D9241505040D8F70895B7
:101DD000FB01DC010D900020E9F7119701900D92B5
:101DE0000020E1F70895FC018191861721F08823F6
:101DF000D9F7992708953197CF010895FB01DC01A8
:101E000001900D920020E1F70895FB01DC014150A3
:101E1000504030F08D910190801919F40020B9F7ED
:101E2000881B990B0895FB01DC014150504048F09C
:101E300001900D920020C9F701C01D924150504001
:101E4000E0F70895AEE0B0E0E8E2FFE00C94AEBF4A
:101E50000D891E898EE08C831A8309838FEF9FE79B
:101E60009E838D839E01275E3F4FCE0101966F8931
:101E7000788DA9010AD02F813885020F131FF80130
:101E800010822E96E4E00C94CABFABE0B0E0EBE425
:101E9000FFE00C94A0BF3C012B015A01FC0117820A
:101EA0001682838181FD03C06FEF7FEFB9C19AE095
:101EB000892E1E010894211C311CF3012381F2019B
:101EC00023FD859123FF81912F01882309F4A5C16A
:101ED000853239F423FD859123FF81912F018532CD
:101EE00021F490E0B301B7D1E8CF982FFF24EE247E
:101EF0009924FFE1FF15D0F09B3269F09C3228F461
:101F0000903259F0933291F40EC09D3249F09033E3
:101F100069F441E024C052E0F52A84E0F82A28C0A0
:101F200098E0F92A25C0E0E1FE2A22C0F7FC29C08A
:101F3000892F80538A3070F4F6FE05C0989C902C4F
:101F40001124980E15C0E89CE02C1124E80EF0E254
:101F5000FF2A0EC09E3229F4F6FC5FC140E4F42A49
:101F600007C09C3619F450E8F52A02C0983649F4A7
:101F7000F20123FD959123FF91912F01992309F0FF
:101F8000B8CF892F8554833018F08052833038F4CD
:101F900044E050E0A40EB51E5FE359830FC09336B2
:101FA00031F0933779F0933509F052C01FC0F50135
:101FB0008081898342E050E0A40EB51E610101E0FA
:101FC00010E011C0F501C080D180F6FC03C06FEFB6
:101FD0007FEF02C0692D70E042E050E0A40EB51E14
:101FE000C6012ED18C015FE7F52213C0F501C08038
:101FF000D180F6FC03C06FEF7FEF02C0692D70E067
:1020000042E050E0A40EB51EC6010FD18C0150E88D
:10201000F52AF3FE06C018C080E290E0B3011BD1A0
:10202000EA948E2D90E008171907B0F30DC0F60161
:10203000F7FC8591F7FE81916F0190E0B3010BD120
:10204000E110EA94015010400115110581F7E2C03A
:10205000943611F0993661F5F7FE08C0F50120813C
:1020600031814281538184E090E00AC0F501808192
:1020700091819C01442737FD4095542F82E090E0E8
:10208000A80EB91E9FE6F92257FF09C0509540954A
:10209000309521953F4F4F4F5F4FE0E8FE2ACA0130
:1020A000B901A1012AE030E002D1D82ED2183FC0F8
:1020B000953729F41F2D1F7E2AE030E01DC01F2D0B
:1020C000197F9F3661F0903720F4983509F0A5C04C
:1020D0000FC0903739F0983709F09FC004C028E04E
:1020E00030E00AC0106114FD146020E130E004C04B
:1020F00014FD166020E132E017FF08C0F501608191
:1021000071818281938144E050E008C0F5018081B3
:102110009181BC0180E090E042E050E0A40EB51E49
:10212000A101C5D0D82ED2188FE7F82EF122F6FEE5
:102130000BC05EEFF522D91438F4F4FE07C0F2FCB0
:1021400005C08FEEF82202C01D2D01C0192DF4FE2E
:102150000DC0FE01ED0DF11D8081803319F499EE63
:10216000F92208C01F5FF2FE05C003C08F2D8678DC
:1021700009F01F5F0F2DF3FC13C0F0FE0EC01E15FB
:1021800010F09D2C0AC09D2C9E0C911A1E2D05C08E
:1021900080E290E0B3015FD01F5F1E15C8F304C05A
:1021A0001E1510F4E11A01C0EE2404FF0EC080E3F6
:1021B00090E0B30150D002FF1BC001FD03C088E7CF
:1021C00090E00EC088E590E00BC0802F867881F00B
:1021D00001FF02C08BE201C080E2F7FC8DE290E0DB
:1021E000B30139D005C080E390E0B30134D09A94B4
:1021F000D914C8F3DA94F101ED0DF11D808190E05E
:10220000B30129D0DD20B1F705C080E290E0B30131
:1022100022D0EA94EE20C9F750CEF301668177818F
:10222000CB012B96E2E10C94BCBFFC010590615000
:1022300070400110D8F7809590958E0F9F1F0895DC
:10224000FC016150704001900110D8F78095909585
:102250008E0F9F1F08950F931F93CF93DF938C01D1
:10226000EB018B8181FF1BC082FF0DC02E813F815E
:102270008C819D812817390764F4E881F9810193E5
:10228000F983E88306C0E885F985802F0995892BB5
:1022900031F48E819F8101969F838E8302C00FEF60
:1022A0001FEFC801DF91CF911F910F910895FA019F
:1022B000AA27283051F1203181F1E8946F936E7F85
:1022C0006E5F7F4F8F4F9F4FAF4FB1E03ED0B4E076
:1022D0003CD0670F781F891F9A1FA11D680F791FB7
:1022E0008A1F911DA11D6A0F711D811D911DA11DC8
:1022F00020D009F468943F912AE0269F11243019D8
:10230000305D3193DEF6CF010895462F4770405D72
:102310004193B3E00FD0C9F7F6CF462F4F70405D21
:102320004A3318F0495D31FD4052419302D0A9F77C
:10233000EACFB4E0A6959795879577956795BA9576
:10234000C9F700976105710508959B01AC010A2E3C
:1023500006945795479537952795BA95C9F7620F13
:10236000731F841F951FA01D0895DC01ED91FC9142
:102370000280F381E02D09950895DF93CF930F92AA
:10238000CDB7DEB7FC016983A081B18114962D9190
:102390003C911597BE016F5F7F4F41E050E0F9011E
:1023A00009950F90CF91DF910895FC01128213825D
:1023B0000895FC018381882311F081E082830895D0
:1023C000FC018281811112820895FC0188E493E06E
:1023D000918380838581882321F0CF0102960C941C
:1023E00093860895EF92FF920F931F938C0124EB35
:1023F000E22E21E0F22EE80EF91EC7010E9444866B
:10240000C7010E949386F801108211821F910F91DB
:10241000FF90EF900895CF92DF92EF92FF920F938B
:102420001F93CF93DF937C016B01DB010D900020A4
:10243000E9F78D0101501040061B170BE4EBF1E0AA
:10244000EE0EFF1ED7011C92ECE4FEEFEE0EFF1E17
:10245000CB016EE470E0C7DCEC01009731F4F801C9
:102460003197EC0DFD1D86010CC060E270E0BBDC15
:102470008C010F5F1F4FCE016AE270E0B4DCFC01FB
:1024800031978DE081838AE082831382C7018E5465
:102490009E4FB8010E94798E84EB91E0E80EF91E00
:1024A000D7018C918823F1F0EFE1F1E06491EF0125
:1024B00006C08DEE90E161DF2196FE0164916623F6
:1024C000C1F7E6E2F1E06491EF0106C08DEE90E124
:1024D00054DF2196FE0164916623C1F78DEE90E1F1
:1024E0006AE04BDFDF91CF911F910F91FF90EF904A
:1024F000DF90CF900895EF92FF920F93CF93DF93E9
:102500007C01FC018381882309F43DC0EEE4F1E005
:102510006491EF0106C08DEE90E12FDF2196FE0160
:1025200064916623C1F789E692E0E80EF91EF7018F
:10253000408151816281738187E99DEFE80EF91E28
:102540008DEE90E12AE000E00E9441B7ECE4F1E07A
:102550006491EF0106C08DEE90E10FDF2196FE0140
:1025600064916623C1F781E692E0E80EF91EF70157
:1025700040815181628173818DEE90E12AE000E01B
:102580000E9441B70DC0ECE3F1E06491EF0106C099
:102590008DEE90E1F2DE2196FE0164916623C1F793
:1025A0008DEE90E16AE0E9DEDF91CF910F91FF902F
:1025B000EF9008952F923F924F925F926F927F9289
:1025C0008F929F92AF92BF92CF92DF92EF92FF9243
:1025D0000F931F93DF93CF93CDB7DEB7AA970FB6B4
:1025E000F894DEBF0FBECDBF5C014B01FC018381BF
:1025F000882309F40AC1C5018C549E4F0E9493861A
:10260000F5011282188A1B8A88E493E09F878E87DF
:102610004CE4C42ED12CCA0CDB1C2FE230E0A20EFD
:10262000B31EF601B182A08221ED3FEFA20EB31ED0
:10263000F40180818F3209F079C0C4016FE270E04B
:10264000D2DB7C010894E11CF11C3E010894611C62
:10265000711C260130E1232E312C2C0E3D1E61C051
:10266000C7016FE270E0BFDB6C01009709F46CC03A
:10267000E816F90608F068C08C010E191F09C3019D
:10268000B701A801D0DB060D171DF80110828DEEF1
:1026900090E1B3016ADE8DEE90E16AE06EDEF20158
:1026A000608171816115710519F460E070E002C00C
:1026B0006E5F7F4FC101A30121E00E94808D8823BE
:1026C00029F5EAE8F1E064917F0108C08DEE90E120
:1026D00054DE0894E11CF11CF70164916623B1F704
:1026E0008DEE90E1BE016F5F7F4F3FDEE8E8F1E0E5
:1026F00064917F0108C08DEE90E13FDE0894E11CFB
:10270000F11CF70164916623B1F778C02EE030E048
:102710002C0F3D1FF2013183208376010894E11CC8
:10272000F11CE114F10409F09BCF0BC08EE490E0A2
:10273000A80EB91EF601B182A08222EB3FEFA20ED5
:10274000B31ED82C092D02C0DE2C0F2D8CE490E096
:10275000A80EB91EF5018081918124EB3FEFA20EF6
:10276000B31E009719F480E090E001C002966D2D31
:10277000702F0E944C8E8823F1F0EAE7F1E064911B
:102780007F0108C08DEE90E1F8DD0894E11CF11C9A
:10279000F70164916623B1F78DEE90E16D2D702FF6
:1027A000E4DD29E632E0A20EB31EF50110821182AB
:1027B0001282138227C0E2E6F1E064917F0108C033
:1027C0008DEE90E1DADD0894E11CF11CF7016491D3
:1027D0006623B1F78DEE90E16D2D702FC6DDE0E63A
:1027E000F1E064917F0108C08DEE90E1C6DD0894B0
:1027F000E11CF11CF70164916623B1F78DEE90E1C5
:102800006AE0BBDDCE010E96E0DDAA960FB6F89425
:10281000DEBF0FBECDBFCF91DF911F910F91FF9013
:10282000EF90DF90CF90BF90AF909F908F907F9070
:102830006F905F904F903F902F900895BF92CF92EE
:10284000DF92EF92FF920F931F93CF93DF938C0150
:10285000EB018FE28993EE24E394FF246DE8C62E0A
:1028600061E0D62EC00ED11E5DE1B52E14C0FB9CDA
:10287000C001112483599F4F800F911FBE010E94F8
:10288000A38602C02196E3948881882319F08CE8FE
:102890008E15C0F7F3942F2D30E0F60180819181E1
:1028A0002817390720F3E7FC07C0C8018C549E4F56
:1028B000BE010E94A38601C01882DF91CF911F91B3
:1028C0000F91FF90EF90DF90CF90BF9008952F92DF
:1028D0003F924F925F926F927F928F929F92AF92B0
:1028E000BF92CF92DF92EF92FF920F931F93DF93ED
:1028F000CF93CDB7DEB7AB970FB6F894DEBF0FBE60
:10290000CDBF5C014B014BA7DC0113968C91882352
:1029100009F4D3C2E7EBF1E0AE0EBF1ED5018C91F6
:10292000E9E4FEEFAE0EBF1E882309F4F5C02223B2
:1029300009F0C6C02FEC31E0A20EB31ED5018C9178
:10294000E1E3FEEFAE0EBF1E882369F1EFE1F1E097
:1029500064917F0108C08DEE90E10FDD0894E11CC9
:10296000F11CF70164916623B1F7E2E6F2E06491AD
:102970007F0108C08DEE90E100DD0894E11CF11CA0
:10298000F70164916623B1F78DEE90E141E050E0EC
:1029900060E070E00E94CCB78DEE90E16AE0EDDC83
:1029A0000E9462298AC2EFEEF0E064917F0108C0C4
:1029B0008DEE90E1E2DC0894E11CF11CF7016491DA
:1029C0006623B1F7E9E4F2E064917F0108C08DEE7F
:1029D00090E1D3DC0894E11CF11CF70164916623BB
:1029E000B1F78DEE90E1B401C0DCEEE3F2E064916A
:1029F0007F0108C08DEE90E1C0DC0894E11CF11C61
:102A0000F70164916623B1F7850101531E4FD80188
:102A10006C918DE8F82E6F9DB00111246C527E4FA1
:102A20006A0D7B1DC5010ADFF80160816F9DB00151
:102A300011246C527E4F6A0D7B1D8DEE90E195DC6A
:102A4000E8E3F2E064917F0108C08DEE90E195DC4F
:102A50000894E11CF11CF70164916623B1F7B9E613
:102A6000EB2EB2E0FB2EEA0CFB1CD7014D915D91E1
:102A70006D917C918DEE90E12AE000E00E9441B7DB
:102A80008DEE90E16AE079DCA50141535E4FFA01D9
:102A90002081E22FF0E0EC58FF4FEE0FFF1FEE0F0A
:102AA000FF1FEA0DFB1DD701CD90DD90ED90FC904E
:102AB000C082D182E282F3822F5FFA01208326C096
:102AC000EFEEF0E064917F0108C08DEE90E155DCFF
:102AD0000894E11CF11CF70164916623B1F7E7E269
:102AE000F2E064917F0108C08DEE90E146DC08942D
:102AF000E11CF11CF70164916623B1F78DEE90E1C2
:102B0000B40133DC8DEE90E16AE037DCC5018C5412
:102B10009E4F0E94938630C02FEC31E0A20EB31E70
:102B2000D5011C92E1E3FEEFAE0EBF1EEFEEF0E02A
:102B300064917F0108C08DEE90E11FDC0894E11CD8
:102B4000F11CF70164916623B1F7E6E1F2E06491CC
:102B50007F0108C08DEE90E110DC0894E11CF11CAF
:102B6000F70164916623B1F78DEE90E1B401FDDBCE
:102B70008DEE90E16AE001DCD50112961C92188A74
:102B80001B8A88E493E09F878E87ECE4CE2ED12CBD
:102B9000CA0CDB1CEFE2F0E0AE0EBF1ED601AD9218
:102BA000BC92E1EDFFEFAE0EBF1ED4018C918F32CF
:102BB00009F079C0C4016FE270E015D97C01089476
:102BC000E11CF11C3E010894611C711C260170E19E
:102BD000272E312C2C0E3D1E61C0C7016FE270E024
:102BE00002D96C01009709F46CC0E816F90608F0E8
:102BF00068C08C010E191F09C301B701A80113D9C0
:102C0000060D171DF80110828DEE90E1B301ADDBCA
:102C10008DEE90E16AE0B1DBD2016D917C9161159E
:102C2000710519F460E070E002C06E5F7F4FC10172
:102C3000A30121E00E94808D882329F5E2E0F2E0E3
:102C400064917F0108C08DEE90E197DB0894E11C50
:102C5000F11CF70164916623B1F78DEE90E1BE019E
:102C60006F5F7F4F82DBE0E0F2E064917F0108C09C
:102C70008DEE90E182DB0894E11CF11CF701649178
:102C80006623B1F713C1EEE0F0E0EC0FFD1FD201B7
:102C9000ED93FC9376010894E11CF11CE114F1041E
:102CA00009F09BCF0BC02EE430E0A20EB31ED6017C
:102CB000AD92BC92E2EBFFEFAE0EBF1E082DD92CF9
:102CC00002C00E2DDF2CF501E45BFF4F2BA5222364
:102CD00009F49EC0608171816115710519F460E08D
:102CE00070E002C06E5F7F4FC5018C549E4F402F35
:102CF0005D2D21E00E94808D882309F465C0A50127
:102D00004F595D4F85EC91E0A80EB91EF501808109
:102D10009181A281B3812BE33EEFA20EB31EFA0193
:102D200080839183A283B383E2EFF1E064917F011A
:102D300008C08DEE90E121DB0894E11CF11CF70145
:102D400064916623B1F78DEE90E1602F7D2D0DDB50
:102D5000EAEEF1E064917F0108C08DEE90E10DDBB9
:102D60000894E11CF11CF70164916623B1F721E698
:102D700032E0A20EB31ED5014D915D916D917C9113
:102D80008DEE90E12AE000E00E9441B78DEE90E1E7
:102D90006AE0F3DAE8E0F0E0AE0EBF1ED5011D9266
:102DA0001D921D921C921397ECEDF1E064917F014E
:102DB00008C08DEE90E1E1DA0894E11CF11CF70106
:102DC00064916623B1F772C0E8ECF1E064917F0191
:102DD00008C08DEE90E1D1DA0894E11CF11CF701F6
:102DE00064916623B1F78DEE90E1602F7D2DBDDA01
:102DF000E6ECF1E064917F0108C08DEE90E1BDDA70
:102E00000894E11CF11CF70164916623B1F74EC0F0
:102E1000608171816115710519F460E070E002C094
:102E20006E5F7F4FC5018C549E4F402F5D2D26E570
:102E30000E94808D882321F5E2EBF1E064917F010F
:102E400008C08DEE90E199DA0894E11CF11CF701BD
:102E500064916623B1F78DEE90E1602F7D2D85DAC8
:102E6000E0EBF1E064917F0108C08DEE90E185DA3E
:102E70000894E11CF11CF70164916623B1F716C0B8
:102E800081E0D5018C93EEE9F1E064917F0108C007
:102E90008DEE90E172DA0894E11CF11CF701649167
:102EA0006623B1F78DEE90E1B4015FDA8DEE90E12B
:102EB0006AE063DACE010E9688DAAB960FB6F89424
:102EC000DEBF0FBECDBFCF91DF911F910F91FF905D
:102ED000EF90DF90CF90BF90AF909F908F907F90BA
:102EE0006F905F904F903F902F900895EF92FF92D8
:102EF0000F931F93CF93DF93EC010E94D1958E0126
:102F000001531E4FD8018C9134EBE32E31E0F32EA8
:102F1000EC0EFD1E882399F1C7010E949386F801EB
:102F20006081615060838DE8689FB00111246C520C
:102F30007E4F6C0F7D1FCE0141E021E0C8DCD8013F
:102F4000EC91F0E0EC58FF4FEE0FFF1FEE0FFF1F6C
:102F5000EC0FFD1F4081518162817381C759DD4FA4
:102F6000488359836A837B83C956D240C7010E9434
:102F70007A858B81882389F181E08A832EC00E9423
:102F80002494C7010E9493861A8283EE90E00E94E7
:102F9000145480916108882301F110926108809196
:102FA0000D06C82FD0E0CC0FDD1FCA52D04F68816C
:102FB0007981882777FD8095982F0E94F4BB209116
:102FC000A8023091A9024091AA025091AB020E943E
:102FD00060BD181614F419821882DF91CF911F91E9
:102FE0000F91FF90EF900895FC0181E08183CF0164
:102FF00040E021E06CCCEF92FF920F931F93CF93B0
:10300000DF937C01FC01138284A9882321F0C7018E
:10301000C1960E949386870101571E4FC80160E048
:1030200044E10E943B848823D9F4EFEEF0E0649100
:10303000EF0106C08DEE90E1A0D92196FE016491CA
:103040006623C1F7E3EDF2E06491EF0106C08DEE77
:1030500090E193D92196FE0164916623C1F76BC07C
:10306000E701CC56DE4FCE01B80141E00E940A8F45
:10307000882311F5CE01B80140E00E940A8F882311
:10308000D9F4EFE1F1E06491EF0106C08DEE90E13B
:1030900074D92196FE0164916623C1F7E0ECF2E059
:1030A0006491EF0106C08DEE90E167D92196FE0193
:1030B00064916623C1F73FC0C701C196BE010E945B
:1030C00085898823D9F4EFE1F1E06491EF0106C02E
:1030D0008DEE90E152D92196FE0164916623C1F7ED
:1030E000E0EBF2E06491EF0106C08DEE90E145D98E
:1030F0002196FE0164916623C1F71DC081E0F701AE
:103100008383EFEEF0E06491EF0106C08DEE90E175
:1031100034D92196FE0164916623C1F7E5EAF2E015
:103120006491EF0106C08DEE90E127D92196FE0152
:1031300064916623C1F78DEE90E16AE01ED9D70154
:10314000A05BBF4FF701F1968BE101900D9281508A
:10315000E1F7C7018F962CE430E0E20EF31EF70191
:1031600091838083DF91CF911F910F91FF90EF901A
:1031700008952F923F924F925F926F927F929F920B
:10318000AF92BF92CF92DF92EF92FF920F931F9375
:10319000DF93CF93CDB7DEB7CC55D0400FB6F894C0
:1031A000DEBF0FBECDBF8C01662319F503591D4F3D
:1031B000D8018C910D561240882309F4E6C00FB651
:1031C000F8942091E4103091E5104091E610509170
:1031D000E7100FBE0B591D4FF80180819181A2812C
:1031E000B3810556124082179307A407B50708F468
:1031F000CCC003591D4FD8011C920D561240F80146
:103200008381882341F4C801F6DED80113968C919E
:10321000882309F4BAC000D000D000D0EDB7FEB7C3
:1032200031966E010894C11CD11CADB7BEB7129681
:10323000DC92CE92119786E191E093838283D8014C
:103240009D968D919C919E97958384830E94220FD9
:103250007601EDB7FEB736960FB6F894FEBF0FBEF7
:10326000EDBF56010AC0D7018C91992787FD909533
:103270000E9495BFF70181937F01F5010190002025
:10328000E9F73197EA19FB098E2D8C198E175CF33B
:1032900071E3A72EB12CA00EB11EC50140E050E095
:1032A00060E070E00E947A8599246DE3C62ED12CEF
:1032B000CC0EDD1E2E010894411C511C5FE1652ED1
:1032C000712C6C0E7D1E4FE0242E41E0342E43C045
:1032D000D7018C9190E00E9495BFF70181937F0107
:1032E000D6010D900020E9F71197AC19BD098E2D7C
:1032F0008C198A176CF327968FAD27978E3759F163
:10330000C601B20145E050E00E94050F009719F593
:1033100000D000D000D0EDB7FEB73196ADB7BEB744
:1033200012967C926E921197338222825582448249
:103330000E94220FEDB7FEB736960FB6F894FEBF87
:103340000FBEEDBFC3010E948B548BE091E00E9441
:10335000145499249394C501B60140E050E00E94B2
:10336000A488181614F47601BBCF992041F48FEF8E
:103370009FEFD8019E969C938E939D9706C0F8016F
:1033800085A596A5019696A785A7C45ADF4F0FB6C7
:10339000F894DEBF0FBECDBFCF91DF911F910F918B
:1033A000FF90EF90DF90CF90BF90AF909F907F9075
:1033B0006F905F904F903F902F9008952F923F9283
:1033C0004F925F926F927F928F929F92AF92BF9235
:1033D000CF92DF92EF92FF920F931F93DF93CF93E1
:1033E000CDB7DEB7CB58D0400FB6F894DEBF0FBED6
:1033F000CDBF7C012B015A0182E090E0A80EB91EDE
:10340000F7017196CB57DF4FF983E883C558D04059
:10341000C7010496CE57DF4F99838883C258D040A6
:10342000CC57DF4F1882C458D040B2E6CB2ED12CF7
:10343000CC0EDD1EF6013B96C957DF4FF983E883BA
:10344000C758D040AEE66A2EA2E07A2E6E0C7F1CE2
:10345000F0E78F2EF2E09F2E8E0C9F1CEEE02E2EBA
:10346000312C2C0E3D1E85E490E08C0F9D1F0296A2
:10347000C757DF4F99838883C958D040EFEEF0E0FB
:103480009491C557DF4F9883CB58D0402BC1F6019C
:103490008385482F50E0BA01687170706031710502
:1034A00009F02EC1F301208131812130310509F469
:1034B00027C12230310509F423C1F601DE0111963E
:1034C0009081903239F08E2F8C19883011F48EE271
:1034D0008D939D933196C957DF4F88819981C75845
:1034E000D040E817F90761F71C921E86F20180812F
:1034F000882329F4C10160E071E00E94E80EC10157
:10350000B2010E94E80EC101BE016F5F7F4F0E94B1
:10351000E80EC10160E071E00E94E80E1AA61DA647
:1035200088E493E099A788A7CE018A96B501AE01F9
:103530004F5F5F4F21E00E94808D882371F5F3017A
:1035400080819181892B49F5C557DF4F6881CB5820
:10355000D0400FEE10E008C08DEE90E10E94BD114A
:103560000F5F1F4FF80164916623B1F78DEE90E174
:1035700062E071E00E94B5118DEE90E16AE00E9478
:10358000BD118DEE90E1BE016F5F7F4F0E94B511BE
:103590008DEE90E16AE00E94BD11C757DF4FA88110
:1035A000B981C958D040FE01BA968BE101900D92C5
:1035B0008150E1F788E493E027969FAF8EAF27977D
:1035C000C701B101AE014B5B5F4FF8DECE018B5BF3
:1035D0009F4F0E94E511CE0188960E94E51182C09E
:1035E000953E09F47FC09E3209F47CC09F3509F4F2
:1035F00079C0F7019189992331F09E3209F472C0A4
:103600009F3509F46FC043FD6DC080E060317105E6
:1036100009F481E0F70184A7882349F4F601808545
:10362000873409F05FC081858E3709F45BC0CE57BF
:10363000DF4FA881B981C258D040F6018081803225
:1036400041F08E2F8C19883011F48EE28D93808199
:103650008D933196C957DF4F88819981C758D040E3
:10366000E817F90759F71C92F301808191810097BF
:10367000A9F48DEE90E1B2010E94B5118DEE90E1BA
:10368000CE57DF4F68817981C258D0400E94B51172
:103690008DEE90E16AE00E94BD1124C08130910559
:1036A00039F4F401808191810196918380831AC05D
:1036B0000297C1F4CC57DF4FF881C458D0402F2F68
:1036C00030E0F4018081918128173907F1F0CC575F
:1036D000DF4FF881C458D040FF5FCC57DF4FF883ED
:1036E000C458D040C501B601CB57DF4F488159813E
:1036F000C558D0400E94A48818160CF4C8CE05C046
:10370000F6019081992309F06BCFC557DF4F0FB6B3
:10371000F894DEBF0FBECDBFCF91DF911F910F9107
:10372000FF90EF90DF90CF90BF90AF909F908F90E1
:103730007F906F905F904F903F902F900895EF9201
:10374000FF920F931F93DF93CF93CDB7DEB76D97A3
:103750000FB6F894DEBF0FBECDBF7C018EE692E0BF
:10376000E80EF91EF7011182108282E99DEFE80E42
:10377000F91E87010F5C1F4FC80140E050E060E078
:1037800070E00E947A85DE011396F8018BE10190CA
:103790000D928150E1F788E493E09A838983C70111
:1037A00065E171E08E010F5F1F4FA80107DEC801C0
:1037B0000E94E5116D960FB6F894DEBF0FBECDBF27
:1037C000CF91DF911F910F91FF90EF900895CF93CC
:1037D000DF93FC0111AA14AA88E493E090AB87A7B9
:1037E000E05BFF4F10823396108235979183808380
:1037F000EE54F040EF01C559DF4FDE0120E030E02C
:10380000482F12961C92129715961C9215974C935E
:1038100011969C931197235E3F4F5D9681E0223273
:10382000380779F7E057FE4F89E18083339610829D
:10383000789610823996108233961082359740839D
:103840009183E155FF4F10821182128213823896C4
:103850001082118212821382E956F2401282138280
:1038600010821182E357FE4F11821082EE5BFF4FF0
:103870001082DE01C9011D920197E9F7E256FF4F60
:1038800081E08083ED56F24016A615A60FB6F89497
:103890008091E4109091E510A091E610B091E710AE
:1038A0000FBE88579C4EAF4FBF4FEB59FD4F8083E3
:1038B0009183A283B383DF91CF9108950F931F93D8
:1038C000DF93CF93CDB7DEB766970FB6F894DEBF20
:1038D0000FBECDBF8091160190911701A0911801E4
:1038E000B09119018F87988BA98BBA8BFE013F96F7
:1038F00044E650E08081F999FECF1FBA52BD41BD28
:1039000080BD0FB6F894FA9AF99A0FBE4F5F5F4FD9
:103910004836510511F03196EDCFE5E0F8E08081B1
:10392000F999FECF1FBA52BD41BD80BD0FB6F894C4
:10393000FA9AF99A0FBE4F5F5F4F4837510511F061
:103940003196EDCFE5EFF7E08081F999FECF1FBA10
:1039500052BD41BD80BD0FB6F894FA9AF99A0FBED8
:103960004F5F5F4F4838510511F03196EDCFE5E1DB
:10397000F8E08081F999FECF1FBA52BD41BD80BDEC
:103980000FB6F894FA9AF99A0FBE4F5F5F4F483915
:10399000510511F03196EDCFE9E2F8E08081F99917
:1039A000FECF1FBA52BD41BD80BD0FB6F894FA9A42
:1039B000F99A0FBE4F5F5F4F4C39510511F03196A8
:1039C000EDCFEDE2F8E08081F999FECF1FBA52BD4C
:1039D00041BD80BD0FB6F894FA9AF99A0FBE4F5FB9
:1039E0005F4F403A510511F03196EDCFE5E2F8E036
:1039F0008081F999FECF1FBA52BD41BD80BD0FB67F
:103A0000F894FA9AF99A0FBE4F5F5F4F443A510506
:103A100011F03196EDCFEDE3F8E08081F999FECF1A
:103A20001FBA52BD41BD80BD0FB6F894FA9AF99AFB
:103A30000FBE4F5F5F4F483A510511F03196EDCF01
:103A4000E1EFF7E08081F999FECF1FBA52BD41BD89
:103A500080BD0FB6F894FA9AF99A0FBE4F5F5F4F88
:103A60004C3A510511F03196EDCFE1E3F8E0808159
:103A7000F999FECF1FBA52BD41BD80BD0FB6F89473
:103A8000FA9AF99A0FBE4F5F5F4F403B510511F014
:103A90003196EDCFE5E3F8E08081F999FECF1FBACA
:103AA00052BD41BD80BD0FB6F894FA9AF99A0FBE87
:103AB0004F5F5F4F443B510511F03196EDCFE9E385
:103AC000F8E08081F999FECF1FBA52BD41BD80BD9B
:103AD0000FB6F894FA9AF99A0FBE4F5F5F4F483BC2
:103AE000510511F03196EDCFE2EFF5E08081F999C3
:103AF000FECF1FBA52BD41BD80BD0FB6F894FA9AF1
:103B0000F99A0FBE4F5F5F4F443C510511F031965B
:103B1000EDCF84EB90E09A83898386E490E09C83E8
:103B20008B832FEF30E03E832D8380EF90E09887EA
:103B30008F8384E690E09A8789873C872B87FE01F4
:103B400031968081F999FECF1FBA52BD41BD80BD2B
:103B50000FB6F894FA9AF99A0FBE4F5F5F4F463C42
:103B6000510571F7FE0133968081F999FECF1FBA96
:103B700052BD41BD80BD0FB6F894FA9AF99A0FBEB6
:103B80004F5F5F4F483C510511F03196EDCFFE017C
:103B900035968081F999FECF1FBA52BD41BD80BDD7
:103BA0000FB6F894FA9AF99A0FBE4F5F5F4F4A3CEE
:103BB000510511F03196EDCFFE0137968081F999CC
:103BC000FECF1FBA52BD41BD80BD0FB6F894FA9A20
:103BD000F99A0FBE4F5F5F4F4C3C510511F0319683
:103BE000EDCFFE0139968081F999FECF1FBA52BD03
:103BF00041BD80BD0FB6F894FA9AF99A0FBE4F5F97
:103C00005F4F4E3C510511F03196EDCFFE013B96D2
:103C10008081F999FECF1FBA52BD41BD80BD0FB65C
:103C2000F894FA9AF99A0FBE4F5F5F4F403D5105E5
:103C300011F03196EDCFEBE6F2E08081F999FECFFD
:103C40001FBA52BD41BD80BD0FB6F894FA9AF99AD9
:103C50000FBE4F5F5F4F443D510511F03196EDCFE0
:103C6000EFE6F2E08081F999FECF1FBA52BD41BD67
:103C700080BD0FB6F894FA9AF99A0FBE4F5F5F4F66
:103C8000483D510511F03196EDCFE3E7F2E0808138
:103C9000F999FECF1FBA52BD41BD80BD0FB6F89451
:103CA000FA9AF99A0FBE4F5F5F4F4C3D510511F0E4
:103CB0003196EDCFE9EBF2E08081F999FECF1FBAA2
:103CC00052BD41BD80BD0FB6F894FA9AF99A0FBE65
:103CD0004F5F5F4F403E510511F03196EDCFEDEB58
:103CE000F2E08081F999FECF1FBA52BD41BD80BD7F
:103CF0000FB6F894FA9AF99A0FBE4F5F5F4F443EA1
:103D0000510511F03196EDCFE1ECF2E08081F999A7
:103D1000FECF1FBA52BD41BD80BD0FB6F894FA9ACE
:103D2000F99A0FBE4F5F5F4F483E510511F0319633
:103D3000EDCF80E290E09E878D87FE013D968081E9
:103D4000F999FECF1FBA52BD41BD80BD0FB6F894A0
:103D5000FA9AF99A0FBE4F5F5F4F4A3E510511F034
:103D60003196EDCFEAE1F6E08081F999FECF1FBAF6
:103D700052BD41BD80BD0FB6F894FA9AF99A0FBEB4
:103D80004F5F5F4F4E3E510511F03196EDCFEFE59D
:103D9000F2E08081F999FECF1FBA52BD41BD80BDCE
:103DA0000FB6F894FA9AF99A0FBE4F5F5F4F423FF1
:103DB000510511F03196EDCFEEE1F6E08081F999F1
:103DC000FECF1FBA52BD41BD80BD0FB6F894FA9A1E
:103DD000F99A0FBE4F5F5F4F463F510511F0319684
:103DE000EDCFE3E6F2E08081F999FECF1FBA52BD34
:103DF00041BD80BD0FB6F894FA9AF99A0FBE4F5F95
:103E00005F4F4A3F510511F03196EDCFE2E2F6E007
:103E10008081F999FECF1FBA52BD41BD80BD0FB65A
:103E2000F894FA9AF99A0FBE4F5F5F4F4E3F5105D3
:103E300011F03196EDCFE7E6F2E08081F999FECFFF
:103E40001FBA52BD41BD80BD0FB6F894FA9AF99AD7
:103E50000FBE81E04130580721F04F5F5F4F319630
:103E6000ECCF80911A0190911B01A0911C01B0919F
:103E70001D018B8B9C8BAD8BBE8BFE01739684E6F4
:103E800090E02081F999FECF1FBA92BD81BD20BD7F
:103E90000FB6F894FA9AF99A0FBE8736910519F081
:103EA00001963196EECFE0EEF2E064918F0108C00A
:103EB0008DEE90E10E94BD110F5F1F4FF8016491DC
:103EC0006623B1F7E4E5F5E064918F0108C08DEE5B
:103ED00090E10E94BD110F5F1F4FF80164916623AE
:103EE000B1F78DEE90E16AE00E94BD1166960FB6C3
:103EF000F894DEBF0FBECDBFCF91DF911F910F9120
:103F00000895EF92FF920F931F93DF93CF93CDB756
:103F1000DEB7E0970FB6F894DEBF0FBECDBFDE016F
:103F20001196E8EFF2E080E101900D928150E1F707
:103F3000DE015196E8EEF2E080E101900D928150B1
:103F4000E1F7DE019196E8EDF2E080E101900D925B
:103F50008150E1F789819A81AB81BC81809305080A
:103F600090930608A0930708B093080889899A8956
:103F7000AB89BC898093F5079093F607A093F70768
:103F8000B093F80789A19AA1ABA1BCA180931508B1
:103F900090931608A0931708B09318088D819E81FE
:103FA000AF81B8858093090890930A08A0930B0805
:103FB000B0930C088D899E89AF89B88D8093F907DD
:103FC0009093FA07A093FB07B093FC078DA19EA1E5
:103FD000AFA1B8A58093190890931A08A0931B0865
:103FE000B0931C0889859A85AB85BC8580930D08A4
:103FF00090930E08A0930F08B0931008898D9A8DA6
:10400000AB8DBC8D8093FD079093FE07A093FF07B7
:10401000B093000889A59AA5ABA5BCA580931D08FF
:1040200090931E08A0931F08B09320088D859E854D
:10403000AF85B8898093110890931208A093130854
:10404000B09314088D8D9E8DAF8DB8A1809301081B
:1040500090930208A0930308B09304088DA59EA531
:10406000AFA5B8A98093210890932208A0932308B4
:10407000B09324080E94B85B80E090E8ABE3B5E41D
:104080008093290890932A08A0932B08B0932C08BA
:1040900080932D0890932E08A0932F08B09330089A
:1040A0000F2EF0E0EF2EF0E0FF2EF0E00F2FF0E00B
:1040B0001F2FF02DE0922508F09226080093270884
:1040C0001093280880E29EE4A0E0B0E08093F1071E
:1040D0009093F207A093F307B093F407E0923D08A2
:1040E000F0923E0800933F081093400880E090E073
:1040F000A0E2B1E48093310890933208A093330892
:10410000B09334088DEC9CECACECBEE380933508A6
:1041100090933608A0933708B093380880E090E079
:10412000A0EAB0E48093390890933A08A0933B0842
:10413000B0933C08E092FA05F092FB050093FC0571
:104140001093FD05E092F605F092F7050093F8054F
:104150001093F905E092F205F092F3050093F4054F
:104160001093F50580E090E0A0EAB1E480936B0243
:1041700090936C02A0936D02B0936E02E0926F0276
:10418000F09270020093710210937202E092730237
:10419000F092740200937502109376028FE892EC0D
:1041A000AFECB1E48093B9029093BA02A093BB0242
:1041B000B093BC026DE37AE087E190E40E94C29D77
:1041C0006093BD027093BE028093BF029093C002C1
:1041D0006EEE7CEF8EE892E40E94CE9D6093C10269
:1041E0007093C2028093C3029093C4020E94D29C37
:1041F00080E090E0A0E8BFE38093C5029093C60200
:10420000A093C702B093C802E0921A06F0921B0670
:1042100000931C0610931D06E0921E06F0921F06E6
:104220000093200610932106E0922206F0922306C6
:10423000009324061093250686E696E6A8E1B3E4EB
:1042400080935F0290936002A0936102B093620238
:104250008093630290936402A0936502B093660218
:104260008093670290936802A0936902B0936A02F8
:10427000E0EEF2E064918F0108C08DEE90E10E94C3
:10428000BD110F5F1F4FF80164916623B1F7E6EE91
:10429000F2E064918F0108C08DEE90E10E94BD11A3
:1042A0000F5F1F4FF80164916623B1F78DEE90E127
:1042B0006AE00E94BD11E0960FB6F894DEBF0FBE13
:1042C000CDBFCF91DF911F910F91FF90EF90089597
:1042D0000F931F93CF93DF9300EE12E0F8016491E8
:1042E000E80107C08DEE90E10E94BD112196FE010C
:1042F00064916623B9F7E4E4F5E06491EF0107C047
:104300008DEE90E10E94BD112196FE01649166231D
:10431000B9F78DEE90E16AE00E94BD11F801649159
:10432000C0EED2E007C08DEE90E10E94BD11219653
:10433000FE0164916623B9F7409105085091060883
:1043400060910708709108088CE395E00E941F3186
:104350004091090850910A0860910B0870910C086F
:1043600089E395E00E941F3140910D0850910E089D
:1043700060910F087091100886E395E00E941F314C
:10438000409111085091120860911308709114081F
:1043900083E395E00E941F31E091ED10F091EE1063
:1043A0000280F381E02D8DEE90E16EE171E00995E0
:1043B0008DEE90E16AE00E94BD11F8016491C0EEBB
:1043C000D2E007C08DEE90E10E94BD112196FE0162
:1043D00064916623B9F7E9E1F5E06491EF0107C064
:1043E0008DEE90E10E94BD112196FE01649166233D
:1043F000B9F78DEE90E16AE00E94BD11F801649179
:10440000C0EED2E007C08DEE90E10E94BD11219672
:10441000FE0164916623B9F74091F5075091F607C4
:104420006091F7077091F80780E195E00E941F31D5
:104430004091F9075091FA076091FB077091FC07D2
:104440008DE095E00E941F314091FD075091FE07DD
:104450006091FF07709100088AE095E00E941F318B
:10446000409101085091020860910308709104087E
:1044700087E095E00E941F31E091ED10F091EE1081
:104480000280F381E02D8DEE90E16EE171E00995FF
:104490008DEE90E16AE00E94BD11F8016491C0EEDA
:1044A000D2E007C08DEE90E10E94BD112196FE0181
:1044B00064916623B9F7E9EEF4E06491EF0107C077
:1044C0008DEE90E10E94BD112196FE01649166235C
:1044D000B9F78DEE90E16AE00E94BD11F801649198
:1044E000C0EED2E007C08DEE90E10E94BD11219692
:1044F000FE0164916623B9F74091150850911608A2
:10450000609117087091180880EE94E00E94D830EE
:104510004091190850911A0860911B0870911C086D
:104520008DED94E00E94D83040911D0850911E08F6
:1045300060911F08709120088AED94E00E94D830A5
:10454000409121085091220860912308709124081D
:1045500087ED94E00E94D830E091ED10F091EE10DC
:104560000280F381E02D8DEE90E16EE171E009951E
:104570008DEE90E16AE00E94BD11F8016491C0EEF9
:10458000D2E007C08DEE90E10E94BD112196FE01A0
:1045900064916623B9F7E2EAF4E06491EF0107C0A1
:1045A0008DEE90E10E94BD112196FE01649166237B
:1045B000B9F78DEE90E16AE00E94BD11F8016491B7
:1045C000C0EED2E007C08DEE90E10E94BD112196B1
:1045D000FE0164916623B9F74091290850912A0899
:1045E00060912B0870912C0889E994E00E941F319A
:1045F00040912D0850912E0860912F08709130083D
:1046000086E994E00E941F31E091ED10F091EE10E8
:104610000280F381E02D8DEE90E16EE171E009956D
:104620008DEE90E16AE00E94BD11F8016491C0EE48
:10463000D2E007C08DEE90E10E94BD112196FE01EF
:1046400064916623B9F7E3EEF3E06491EF0107C0EC
:104650008DEE90E10E94BD112196FE0164916623CA
:10466000B9F78DEE90E16AE00E94BD11F801649106
:10467000C0EED2E007C08DEE90E10E94BD11219600
:10468000FE0164916623B9F74091250850912608F0
:1046900060912708709128088AED93E00E941F31ED
:1046A00040913D0850913E0860913F08709140084C
:1046B00087ED93E00E941F314091F1075091F2077E
:1046C0006091F3077091F40784ED93E00E94D83075
:1046D000409131085091320860913308709134084C
:1046E00081ED93E00E941F314091350850913608CA
:1046F00060913708709138088EEC93E00E941F316A
:104700004091390850913A0860913B0870913C08FB
:104710008BEC93E00E941F31E091ED10F091EE10D0
:104720000280F381E02D8DEE90E16EE171E009955C
:104730008DEE90E16AE00E94BD11F8016491C0EE37
:10474000D2E007C08DEE90E10E94BD112196FE01DE
:1047500064916623B9F7E9EBF3E06491EF0107C0D8
:104760008DEE90E10E94BD112196FE0164916623B9
:10477000B9F78DEE90E16AE00E94BD11F8016491F5
:10478000C0EED2E007C08DEE90E10E94BD112196EF
:10479000FE0164916623B9F74091F2055091F3054B
:1047A0006091F4057091F50580EB93E00E941F3154
:1047B0004091F6055091F7056091F8057091F90563
:1047C0008DEA93E00E941F314091FA055091FB055C
:1047D0006091FC057091FD058AEA93E00E941F310B
:1047E000E091ED10F091EE100280F381E02D8DEE5E
:1047F00090E16EE171E009958DEE90E16AE00E9432
:10480000BD11F8016491C0EED2E007C08DEE90E1D9
:104810000E94BD112196FE0164916623B9F7ECE96F
:10482000F3E06491EF0107C08DEE90E10E94BD11AD
:104830002196FE0164916623B9F78DEE90E16AE05E
:104840000E94BD11F8016491C0EED2E007C08DEE68
:1048500090E10E94BD112196FE0164916623B9F793
:104860004091B9025091BA026091BB027091BC02B2
:1048700082E993E00E941F316091BD027091BE02F7
:104880008091BF029091C0020E94C89DAB01BC0103
:104890008FE893E00E941F316091C1027091C202C3
:1048A0008091C3029091C4020E94D49DAB01BC01CF
:1048B0008CE893E00E941F31E091ED10F091EE1032
:1048C0000280F381E02D8DEE90E16EE171E00995BB
:1048D0008DEE90E16AE00E94BD11F8016491C0EE96
:1048E000D2E007C08DEE90E10E94BD112196FE013D
:1048F00064916623B9F7E9E7F3E06491EF0107C03B
:104900008DEE90E10E94BD112196FE016491662317
:10491000B9F78DEE90E16AE00E94BD11F801649153
:10492000C0EED2E007C08DEE90E10E94BD1121964D
:10493000FE0164916623B9F740911A0650911B0657
:1049400060911C0670911D0680E793E00E941F3164
:1049500040911E0650911F0660912006709121061D
:104960008DE693E00E941F3140912206509123066C
:1049700060912406709125068AE693E00E941F311B
:10498000E091ED10F091EE100280F381E02D8DEEBC
:1049900090E16EE171E009958DEE90E16AE00E9490
:1049A000BD11F8016491C0EED2E007C08DEE90E138
:1049B0000E94BD112196FE0164916623B9F7E7E5D7
:1049C000F3E06491EF0107C08DEE90E10E94BD110C
:1049D0002196FE0164916623B9F78DEE90E16AE0BD
:1049E0000E94BD11F8016491C0EED2E007C08DEEC7
:1049F00090E10E94BD112196FE0164916623B9F7F2
:104A000040915F0250916002609161027091620278
:104A10008EE493E00E941F31409163025091640242
:104A200060916502709166028BE493E00E941F31F1
:104A300040916702509168026091690270916A0228
:104A400088E493E00E941F31E091ED10F091EE10A8
:104A50000280F381E02D8DEE90E16EE171E0099529
:104A60008DEE90E16AE00E94BD11F8016491C0EE04
:104A7000D2E007C08DEE90E10E94BD112196FE01AB
:104A800064916623B9F7E1E3F3E06491EF0107C0B5
:104A90008DEE90E10E94BD112196FE016491662386
:104AA000B9F78DEE90E16AE00E94BD11F8016491C2
:104AB000C0EED2E007C08DEE90E10E94BD112196BC
:104AC000FE0164916623B9F740916B0250916C022C
:104AD00060916D0270916E0288E293E00E941F3136
:104AE00040916F0250917002609171027091720258
:104AF00085E293E00E941F3140917302509174024D
:104B0000609175027091760282E293E00E941F31FB
:104B1000E091ED10F091EE100280F381E02D8DEE2A
:104B200090E16EE171E009958DEE90E16AE00E94FE
:104B3000BD11DF91CF911F910F9108950F931F9396
:104B4000DF93CF93CDB7DEB766970FB6F894DEBF8D
:104B50000FBECDBF80911A0190911B01A0911C0145
:104B6000B0911D018B8B9C8BAD8BBE8BFE013F9654
:104B700004E610E0F999FECF12BD01BDF89A80B5A8
:104B800080830F5F1F4F0836110511F03196F2CF69
:104B9000CE014396BE01615F7F4F43E050E00E942B
:104BA000050F009709F017C2E5E0F8E0F999FECF8C
:104BB00012BD01BDF89A80B580830F5F1F4F083783
:104BC000110511F03196F2CFE5EFF7E0F999FECF3C
:104BD00012BD01BDF89A80B580830F5F1F4F083862
:104BE000110511F03196F2CFE5E1F8E0F999FECF29
:104BF00012BD01BDF89A80B580830F5F1F4F083941
:104C0000110511F03196F2CF0E94B85BE9E2F8E0AD
:104C1000F999FECF12BD01BDF89A80B580830F5F70
:104C20001F4F0C39110511F03196F2CFEDE2F8E08B
:104C3000F999FECF12BD01BDF89A80B580830F5F50
:104C40001F4F003A110511F03196F2CFE5E2F8E07E
:104C5000F999FECF12BD01BDF89A80B580830F5F30
:104C60001F4F043A110511F03196F2CFEDE3F8E051
:104C7000F999FECF12BD01BDF89A80B580830F5F10
:104C80001F4F083A110511F03196F2CFE1EFF7E02E
:104C9000F999FECF12BD01BDF89A80B580830F5FF0
:104CA0001F4F0C3A110511F03196F2CFE1E3F8E015
:104CB000F999FECF12BD01BDF89A80B580830F5FD0
:104CC0001F4F003B110511F03196F2CFE5E3F8E0FC
:104CD000F999FECF12BD01BDF89A80B580830F5FB0
:104CE0001F4F043B110511F03196F2CFE9E3F8E0D4
:104CF000F999FECF12BD01BDF89A80B580830F5F90
:104D00001F4F083B110511F03196F2CFE2EFF5E0AD
:104D1000F999FECF12BD01BDF89A80B580830F5F6F
:104D20001F4F043C110511F03196F2CFFE01319670
:104D3000F999FECF12BD01BDF89A80B580830F5F4F
:104D40001F4F063C110599F7FE013396F999FECFE6
:104D500012BD01BDF89A80B580830F5F1F4F083CDC
:104D6000110511F03196F2CFFE013596F999FECF7B
:104D700012BD01BDF89A80B580830F5F1F4F0A3CBA
:104D8000110511F03196F2CFFE013796F999FECF59
:104D900012BD01BDF89A80B580830F5F1F4F0C3C98
:104DA000110511F03196F2CFFE013996F999FECF37
:104DB00012BD01BDF89A80B580830F5F1F4F0E3C76
:104DC000110511F03196F2CFFE013B96F999FECF15
:104DD00012BD01BDF89A80B580830F5F1F4F003D63
:104DE000110511F03196F2CFEBE6F2E0F999FECF22
:104DF00012BD01BDF89A80B580830F5F1F4F043D3F
:104E0000110511F03196F2CFEFE6F2E0F999FECFFD
:104E100012BD01BDF89A80B580830F5F1F4F083D1A
:104E2000110511F03196F2CFE3E7F2E0F999FECFE8
:104E300012BD01BDF89A80B580830F5F1F4F0C3DF6
:104E4000110511F03196F2CFE9EBF2E0F999FECFBE
:104E500012BD01BDF89A80B580830F5F1F4F003EE1
:104E6000110511F03196F2CFEDEBF2E0F999FECF9A
:104E700012BD01BDF89A80B580830F5F1F4F043EBD
:104E8000110511F03196F2CFE1ECF2E0F999FECF85
:104E900012BD01BDF89A80B580830F5F1F4F083E99
:104EA000110511F03196F2CFFE013D96F999FECF32
:104EB00012BD01BDF89A80B580830F5F1F4F0A3E77
:104EC000110511F03196F2CFEAE1F6E0F999FECF43
:104ED00012BD01BDF89A80B580830F5F1F4F0E3E53
:104EE000110511F03196F2CFEFE5F2E0F999FECF1E
:104EF00012BD01BDF89A80B580830F5F1F4F023F3E
:104F0000110511F03196F2CFEEE1F6E0F999FECFFE
:104F100012BD01BDF89A80B580830F5F1F4F063F19
:104F2000110511F03196F2CFE3E6F2E0F999FECFE8
:104F300012BD01BDF89A80B580830F5F1F4F0A3FF5
:104F4000110511F03196F2CFE2E2F6E0F999FECFC9
:104F500012BD01BDF89A80B580830F5F1F4F0E3FD1
:104F6000110511F03196F2CFE7E6F2E0F999FECFA4
:104F700012BD01BDF89A80B5808381E00130180729
:104F800021F00F5F1F4F3196F1CF0E94D29CE0EECF
:104F9000F2E064918F0108C08DEE90E10E94BD1196
:104FA0000F5F1F4FF80164916623B1F7E8E0F3E06B
:104FB00064918F0108C08DEE90E10E94BD110F5FDA
:104FC0001F4FF80164916623B1F78DEE90E16AE01E
:104FD0000E94BD1102C00E94811F7AD966960FB649
:104FE000F894DEBF0FBECDBFCF91DF911F910F911F
:104FF0000895CF93DF930FB6F8948091E4109091C9
:10500000E510A091E610B091E7100FBE80932F0637
:1050100090933006A0933106B0933206E091580683
:10502000F0915906E65AF94F8081882399F4E6E019
:10503000F6E06491EF0107C08DEE90E10E94BD1192
:105040002196FE0164916623B9F78DEE90E16AE046
:105050000E94BD11DF91CF910895EF92FF920F93BF
:105060001F93CF93DF93EC01E090FE05F090FF05D6
:105070000091000610910106688179818A819B81E7
:10508000A80197010E9452BB882324F4E882F98288
:105090000A831B83E0900206F09003060091040649
:1050A000109105066C817D818E819F81A8019701F9
:1050B0000E9452BB882324F4EC82FD820E831F835E
:1050C000E0900606F0900706009108061091090688
:1050D000688579858A859B85A80197010E9452BBC6
:1050E000882324F4E886F9860A871B87E090520219
:1050F000F090530200915402109155026881798119
:105100008A819B81A80197010E9460BD181624F432
:10511000E882F9820A831B83E0905602F0905702DE
:1051200000915802109159026C817D818E819F817E
:10513000A80197010E9460BD181624F4EC82FD823C
:105140000E831F83E0905A02F0905B0200915C0294
:1051500010915D02688579858A859B85A8019701F4
:105160000E9460BD181624F4E886F9860A871B871A
:10517000DF91CF911F910F91FF90EF900895809153
:10518000180608950F931F93CF93DF9381309105F5
:1051900049F46F5F7F4F09F046C088E693E00E94B4
:1051A000E71B41C0892B09F03EC06F5F7F4FD9F5E7
:1051B00088E493E090931B0580931A0580911F0566
:1051C000882321F08CE195E00E949386C8EDD4E01D
:1051D00008E413E005C06D9783E0C63BD80751F0A3
:1051E000198308838D818823B1F3CE0102960E9432
:1051F0009386F1CF88E493E0998388838D81882317
:1052000021F0CE0102960E94938688E493E0909369
:1052100098038093970380919C03882321F089E968
:1052200093E00E949386DF91CF911F910F91089593
:1052300080E090E06FEF7FEFA5CF81E090E06FEF2F
:105240007FEFA0CFCF93DF930E94A59D809118069A
:10525000882309F034C081E08093180680912706E6
:1052600090912806A0912906B0912A0680932B06DA
:1052700090932C06A0932D06B0932E06EAE6F5E057
:105280006491EF0107C08DEE90E10E94BD1121965F
:10529000FE0164916623B9F7E1E7F5E06491EF015F
:1052A00007C08DEE90E10E94BD112196FE01649130
:1052B0006623B9F78DEE90E16AE00E94BD11DF919F
:1052C000CF910895CF93DF93F8940E94A59D779A8C
:1052D00010920A06769A10920B06479A10920C06C4
:1052E000439AEAE6F5E06491EF0107C08DEE90E1A4
:1052F0000E94BD112196FE0164916623B9F7E7EE85
:10530000F5E06491EF0107C08DEE90E10E94BD11C0
:105310002196FE0164916623B9F78DEE90E16AE073
:105320000E94BD11FFCFEF92FF920F931F930FB614
:10533000F8948091E4109091E510A091E610B0915E
:10534000E7100FBEE0903306F0903406009135066A
:105350001091360620912F0630913006409131068B
:1053600050913206821B930BA40BB50BE816F9067D
:105370000A071B0730F4E114F1040105110509F0D7
:10538000A1DFE0907702F09078020091790210910D
:105390007A02E114F1040105110561F10FB6F894E8
:1053A0008091E4109091E510A091E610B091E71083
:1053B0000FBE20912F06309130064091310650915A
:1053C0003206821B930BA40BB50BE816F9060A07ED
:1053D0001B0780F49091320D8091330D981751F492
:1053E000779A10920A06769A10920B06479A1092B4
:1053F0000C06439A0E94655B1F910F91FF90EF90FE
:1054000008956F927F928F929F92AF92BF92CF92A8
:10541000DF92EF92FF920F931F93F82E6091370661
:10542000709138068091390690913A0620913B069A
:1054300030913C0640913D0650913E060E946DBD64
:105440003B014C0100D000D000D00DB71EB70F5F5C
:105450001F4F60914E0270914F02882777FD809513
:10546000982F0E94F4BB20917B0230917C024091E6
:105470007D0250917E020E9432BE20E030E040E783
:1054800052E40E9459BB20E030E048EC52E40E9414
:1054900059BB5B016C01F801608271828282938248
:1054A000F48280910D06858382EE95E063E476E0D8
:1054B00047E356E020E001E032E0E32E0E94B256DE
:1054C0008091430690914406A0914506B09146060E
:1054D0008093E2059093E305A093E405B093E5057E
:1054E0008091470690914806A0914906B0914A06DE
:1054F0008093E6059093E705A093E805B093E9054E
:1055000080914B0690914C06A0914D06B0914E06AD
:105510008093EA059093EB05A093EC05B093ED051D
:1055200080914F0690915006A0915106B09152067D
:105530008093EE059093EF05A093F005B093F105ED
:105540000FB6F8948091E4109091E510A091E610C8
:10555000B091E7100FBE80932F0690933006A09372
:105560003106B09332068DB79EB706960FB6F89403
:105570009EBF0FBE8DBF1F910F91FF90EF90DF90E8
:10558000CF90BF90AF909F908F907F906F90089535
:105590004F925F926F927F928F929F92AF92BF9243
:1055A000CF92DF92EF92FF920F931F93DF93CF93EF
:1055B00000D000D0CDB7DEB783E496E04EDD0FB665
:1055C000F8948091E4109091E510A091E610B091CC
:1055D000E7100FBE80932F0690933006A0933106FC
:1055E000B09332068091430690914406A0914506FF
:1055F000B091460689839A83AB83BC836091E205B0
:105600007091E3058091E4059091E50529813A8147
:105610004B815C810E9452BB882309F09DC0409061
:105620004706509048066090490670904A0660917F
:10563000E6057091E7058091E8059091E905A301E1
:1056400092010E9452BB882309F086C000D0CDB6DB
:10565000DEB60894C11CD11CE0904B06F0904C06BD
:1056600000914D0610914E0660917B0270917C0274
:1056700080917D0290917E0220E030E040E752E48C
:105680000E9459BB4B015C018DE096E0D6018D93E1
:105690009C9369817A818B819C81A3019201EFE4C3
:1056A000CE2EE6E0DE2E0E94A1610F900F90809139
:1056B000430690914406A0914506B091460680931A
:1056C000E2059093E305A093E405B093E50580918E
:1056D000470690914806A0914906B0914A068093EA
:1056E000E6059093E705A093E805B093E90580915E
:1056F0004B0690914C06A0914D06B0914E068093BA
:10570000EA059093EB05A093EC05B093ED0580912D
:105710004F0690915006A0915106B0915206809389
:10572000EE059093EF05A093F005B093F1050F906F
:105730000F900F900F90CF91DF911F910F91FF90DD
:10574000EF90DF90CF90BF90AF909F908F907F9021
:105750006F905F904F90089500D0CDB6DEB608945C
:10576000C11CD11C409047065090480660904906E5
:1057700070904A06E0904B06F0904C0600914D0662
:1057800010914E0660914E0270914F02882777FD6E
:105790008095982F0E94F4BB20917B0230917C026F
:1057A00040917D0250917E020E9432BE20E030E0A6
:1057B00040E752E40E9459BB20E030E048EC52E45C
:1057C0000E9459BB4B015C018DE096E0F60191838C
:1057D00080835FCFCF93DF938DEE90E10E94F3B88B
:1057E000E9E0F6E06491EF0107C08DEE90E10E94E0
:1057F000BD112196FE0164916623B9F740912706F9
:10580000509128066091290670912A064F5F5F4FDC
:105810006F4F7F4F8DEE90E10E94CCB78DEE90E1FF
:105820006AE00E94BD11E5DBDF91CF9108954F92B0
:105830005F926F927F928F929F92AF92BF92CF9220
:10584000DF92EF92FF920F931F9340907B02509054
:105850007C0260907D0270907E020F2EF0E0AF2EF1
:10586000F0E4BF2EFCE9CF2EF5E4DF2EF02DA09260
:105870007B02B0927C02C0927D02D0927E02609345
:10588000E2057093E3058093E4059093E50520938A
:10589000E6053093E7054093E8055093E905E0926B
:1058A000EA05F092EB050093EC051093ED0500D0AE
:1058B000EDE0F6E0ADB7BEB71296FC93EE9311970C
:1058C000FEEECF2EF5E0DF2E0F2EFBEA8F2EFAEA4A
:1058D0009F2EF6EAAF2EF2E4BF2EF02D0E94A161BA
:1058E0000F900F900E94D19540927B0250927C02C3
:1058F00060927D0270927E021F910F91FF90EF9057
:10590000DF90CF90BF90AF909F908F907F906F90DF
:105910005F904F9008952F923F924F925F926F92B7
:105920007F928F929F92AF92BF92CF92DF92EF922F
:10593000FF920F931F93DF93CF93CDB7DEB7AC9752
:105940000FB6F894DEBF0FBECDBF9A8B898B833024
:10595000910508F084C2FC01E051F84FB4901C019D
:10596000220C331C220C331C91012E513A4F3C8BDC
:105970002B8B80E090E0A0E0B0E0F9018083918380
:10598000A283B3836091E2057091E3058091E40501
:105990009091E5052091E6053091E7054091E805F5
:1059A0005091E905E090EA05F090EB050091EC05D7
:1059B0001091ED05BEEECB2EB5E0DB2E0E94005C13
:1059C0009E012F5F3F4F3CA72BA7D901ECE01D9212
:1059D000EA95E9F760915F0270916002809161023F
:1059E0009091620220911A0630911B0640911C068C
:1059F00050911D060E9478BA69837A838B839C83B9
:105A000060916302709164028091650290916602D8
:105A100020911E0630911F064091200650912106CC
:105A20000E9478BA6D837E838F8398876091670226
:105A3000709168028091690290916A022091220619
:105A40003091230640912406509125060E9478BA91
:105A500069877A878B879C876B2D772767FD709581
:105A6000882777FD8095982F0E94F4BB6D877E87ED
:105A70008F87988B91012D5B394F3E8B2D8B41E0A9
:105A800050E04C0F5D1F420D531D588F4F8BDA01B4
:105A90006D917D918D919C9120E030E040EC5FE331
:105AA0000E9432BE2D853E854F8558890E9432BEA8
:105AB000ED89FE8960837183828393839101225CE7
:105AC0003D4F3A8F298FD9016D917D918D919C9198
:105AD00060937B0270937C0280937D0290937E02A0
